:1000000034C300006AC3000068C3000066C3000078
:1000100064C3000062C3000060C300005EC3000050
:100020005CC300005AC300000C944B240C941825A8
:100030000C94A71F52C3000050C300004EC3000021
:100040004CC300004AC3000048C3000046C3000080
:1000500044C300000C941E2040C300003EC30000B7
:100060003CC300003AC3000038C3000036C30000A0
:1000700034C3000032C3000030C300002EC30000B0
:100080002CC300002AC3000028C3000026C30000C0
:1000900024C3000022C3000020C300001EC30000D0
:1000A0001CC300001AC3000018C3000000001E009B
:1000B00020002200240026002D0035001F00210012
:1000C0002300250027002E00000014000800170060
:1000D000180012002F002B001A0015001C000C0045
:1000E000130030000000040007000A000D000F009C
:1000F0002A003900160009000B000E003300310001
:10010000E1001B00190005001000370034001D003D
:10011000060005001100360038002800E00000004D
:10012000E3002C00E4005100E5000000E2002C0098
:10013000E60050004F005200007C3A003C003E00B8
:1001400040004200440001003B003D003F004100F0
:1001500043004500010020782378010001000100E0
:1001600001000100247801000100010001000100EC
:100170000100217825780100010001000100010043
:10018000267801000100010001000100010028782B
:100190000100010001000100010022782778010020
:1001A0000100010001000100010000000100010048
:1001B00001004E00010000000100010001004A00A2
:1001C0004D004B0001000100010001000100010091
:1001D0000100010001000100010001000100010017
:1001E0000100010001000100010001000100010007
:1001F00001000100010001000100010001000100F7
:1002000001000100010001000100010001000100E6
:1002100001000100010001000100010001000100D6
:1002200001000100010001000100010001000100C6
:1002300001000100010000000100010001000100B7
:1002400001000000010001000100010001000100A7
:100250000100010001000100010001000100010096
:100260000100010001000100010001000100010086
:100270000100010001000100010001000100010076
:100280000100010001000100010001000100010066
:100290000100010001000100010001000100010056
:1002A0000100010001000100010001000100010046
:1002B0000100010001000100010001000100010036
:1002C0000100000001000100010001000100000028
:1002D0000100010001000100010001001E0F0500E6
:1002E000047F3F1F643214643214783C1E1E140ACB
:1002F000052223252628292A2C2D2F303233353666
:10030000383A3B3D3E4042434547494A4C4E5051A6
:10031000535557595A5C5E6062646668696B6D6FCD
:1003200071737577797B7D7F81838587898A8C8ED0
:1003300090929496989A9C9E9FA1A3A5A7A8AAACD8
:10034000AEAFB1B3B4B6B8B9BBBCBEBFC1C2C3C512
:10035000C6C7C9CACBCCCDCED0D1D2D2D3D4D5D6B4
:10036000D7D7D8D9D9DADADBDBDBDCDCDCDCDCDDE7
:10037000DDDDDDDCDCDCDCDCDBDBDBDADAD9D9D8CB
:10038000D7D7D6D5D4D3D2D2D1D0CECDCCCBCAC963
:10039000C7C6C5C3C2C1BFBEBCBBB9B8B6B4B3B192
:1003A000AFAEACAAA8A7A5A3A19F9E9C9A9896942D
:1003B00092908E8C8A89878583817F7D7B79777502
:1003C00073716F6D6B6968666462605E5C5A5957E1
:1003D000555351504E4C4A4947454342403E3D3BA0
:1003E0003A3836353332302F2D2C2A29282625232A
:1003F00022FFAA7F55400001010101010101010115
:1004000002020202020202020203030303030303C5
:100410000304040404040404050505050506060692
:100420000606070707070708080808090909090A4F
:100430000A0A0B0B0B0C0C0C0D0D0D0E0E0E0F0FF4
:100440000F10101111111212131314141515161682
:100450001717181819191A1A1B1B1C1D1D1E1E1FF1
:100460002020212222232424252626272829292A40
:100470002B2C2D2D2E2F3031323233343536373868
:10048000393A3B3C3D3E3F40414243444546474864
:10049000494A4C4D4E4F50515354555658595A5B3A
:1004A0005D5E5F616264656668696B6C6D6F7072DA
:1004B000737577787A7B7D7E8082838587888A8C46
:1004C0008E8F91939596989A9C9EA0A2A3A5A7A97A
:1004D000ABADAFB1B3B5B7BABCBEC0C2C4C6C9CB71
:1004E000CDCFD1D4D6D8DBDDDFE2E4E7E9EBEEF027
:1004F000F3F5F8FAFDFF10034300680061006C009B
:100500006900630065000000140343007500730078
:1005100074006F006D004B004200440000000403B3
:10052000090409023B00020100A0FA0904000001CD
:100530000301010009211101000122440007058186
:100540000308000109040100010300000009211152
:1005500001000122B60007058203200001120100FC
:1005600002000000086A6A0C000100010200010597
:10057000010902A10185020901A10005091901294A
:10058000081500250195087501810205010930094A
:10059000311581257F950275088106093815812559
:1005A0007F950175088106050C0A38021581257FA3
:1005B000950175088106C0C005010980A101850368
:1005C00019012AB700150126B700950175108100A1
:1005D000C0050C0901A101850419012AA002150119
:1005E00026A002950175108100C005010906A10130
:1005F0008506050719E029E715002501950875010D
:1006000081020507190029EF1500250195F07501F4
:1006100081020508190129059505750191029501C9
:1006200075039101C005010906A101050719E0291B
:10063000E71500250195087501810295017508816E
:10064000010507190029FF150026FF00950675080A
:100650008100050819012905150025019505750179
:100660009102950175039101C00011241FBECFEFC7
:10067000DAE0DEBFCDBF04B603FE18C0809192035E
:1006800090919303A0919403B09195038730904B80
:10069000A740B04B59F4109292031092930310921A
:1006A000940310929503E0E0F8E3099511E0A0E0CF
:1006B000B1E0E4EAF1E502C005900D92A83EB10771
:1006C000D9F723E0A8EEB1E001C01D92A239B2072C
:1006D000E1F70E9473120C94862892CC8430B8F40F
:1006E0006A30A8F4473098F450E097E0699F400DD5
:1006F000511D1124FA0196E4899FE00DF11D11248A
:10070000EE0FFF1FE455FF4F85919491089581E00E
:1007100090E00895E3CF089581E00895FDCF089516
:10072000FBCF089581E00895F7CF0895F5CF0895A0
:10073000FDCF089508950895FDCF08950895089573
:10074000A6E0B0E0E6EAF3E00C94542749835A832C
:100750009E833091EF0189819A81311117C03E81CA
:10076000332389F0222379F099D5182F682F8981B6
:100770009A8173D569817A81812F0E947D0F269697
:10078000E3E00C9470277AD5182FF4CF87D56981D0
:100790007A81F3CFFC01262F4081518162817381E0
:1007A00084819581CDCFCF93DF93EC0161E0F2DFBF
:1007B000BE01B4DF882349F061E0CE01EBDFBE016A
:1007C000AFDF8170DF91CF91089580E0FACF0F9372
:1007D0001F93CF93DF93EC0160E0DCDF8C01BE015F
:1007E000AADFBE01C801A8DFDF91CF911F910F9151
:1007F000089521E030E0A90102C0440F551F8A95F9
:10080000E2F7CA0163C4CF93C82F81E090E00C2EB9
:1008100002C0880F991F0A94E2F70E94850D8C2F61
:10082000E8DFCF91089581E00895FDCF0895FBCFD3
:100830000895CF93C82F02D48C2FF7DF8C2FF7DFCA
:100840002FEF84E39CE0215080409040E1F700C00E
:100850000000CF91089581E0ECDF0C94422080E00D
:10086000E8DF0C9466200F931F93CF93DF938C01E6
:1008700061E090DFEC01F801858181110E94F81898
:10088000B801CE0151DF811106C080E0DF91CF9128
:100890001F910F910895B801CE014ADF8823A9F373
:1008A000B801CE010E94211D882379F3B801CE0141
:1008B0000E947B19882349F3B801CE010E94531985
:1008C000882319F3B801CE010E9489128823E9F226
:1008D000B801CE010E947D108823B9F2F80185810C
:1008E000882361F0C330FCE7DF07D9F050F4C1156D
:1008F000ECE7DE07A1F0C130DC47A9F0C80112DF48
:10090000C5CFCB358CE7D80799F0CC35ECE7DE07BF
:1009100061F0CA35DC4791F70E944D0DEFCF9BDFA8
:10092000B4CF0E947D0D9BDFB0CF0E94450DE6CF76
:100930000E944F0DE3CF02DF0E947F1F1BD00C945B
:10094000A2171AD00E945418FADE0C94831F81E07B
:1009500008950895CF93DF93D82FF9DFC82F882308
:1009600011F08D2FF6DF8C2FDF91CF910895089530
:10097000F1CF089580E0FCCF0E94701DF9CFCF9396
:100980000E94701DC82F8091EA018C1771F0C093EE
:10099000EA010E9412206093EB017093EC018093B6
:1009A000ED019093EE018C2FE3DFCF910895ADE040
:1009B000B0E0EDEDF4E00C945527488759876A873D
:1009C0007B878C879D8791118BD71F8286E0FE01E4
:1009D0003896DE01119601900D928A95E1F78D818E
:1009E00081110CC029813A814B815C816D817E81AE
:1009F0008F81C6D62D96E2E00C947127CE01019628
:100A0000D2DE8111EFCFF6CFFC012481213019F421
:100A10008081918174C40895662321F00E94D81AC0
:100A20000C94A31B0E942A1BFBCFCF93C82F8823B3
:100A3000B9F08238B9F40E947F1D81FD11C089E3AD
:100A40000E94AC1ED8D72FEF87EE93E02150804054
:100A50009040E1F700C0000089E30E94C31ECBD79D
:100A6000CF910895833899F40E947F1D80FDF8CFBF
:100A700083E50E94AC1EBFD72FEF81EE94E021509A
:100A800080409040E1F700C0000083E5E6CF843865
:100A900099F40E947F1D82FDE3CF87E40E94AC1E83
:100AA000AAD72FEF81EE94E0215080409040E1F7EB
:100AB00000C0000087E4D1CF8CEF8C0F813A68F43E
:100AC0008C2F0E94211E882321F08C2F0E94C31E90
:100AD00092D78C2F0E94AC1EC2CF80E28C0F883040
:100AE00040F4C77081E001C0880FCA95EAF7DBD6F1
:100AF000B6CFEBE5EC0FE33040F4F0E0E959FE4F00
:100B0000808190E00E94B21DABCFE8E5EC0FEB31A5
:100B100050F4F0E0EE0FFF1FEF5CFE4F80819181FB
:100B20000E94D91D9DCF83E38C0F833108F098CFAD
:100B300061E08C2F71DF94CF882309F44DC0823897
:100B400061F40E947F1D81FF47C089E30E94AC1EB3
:100B500052D789E30E94C31E4EC7833851F40E94C6
:100B60007F1D80FF39C083E50E94AC1E44D783E51A
:100B7000F1CF843851F40E947F1D82FF2DC087E49D
:100B80000E94AC1E38D787E4E5CF9CEF980F913ACE
:100B900008F390E2980F983048F4877091E001C014
:100BA000990F8A95EAF7892F84D6D6CF9BE5980FBF
:100BB000933020F490E080E00C94B21D98E5980FFB
:100BC0009B3120F490E080E00C94D91D93E3980FC2
:100BD000933110F460E020CF08951F93CF93DF93FB
:100BE000182FEB0122DF209731F4812FA5DFDF9151
:100BF000CF911F9108958FE99FE00197F1F700C011
:100C000000002197F0CF70E060E0893311F460E5D7
:100C100070E0E3CF882311F046D6EDC6089588230F
:100C200011F047D6E8C60895B0E0A0E0EAE1F6E0AA
:100C30000C944E276C01D62FC72FFC01158106811D
:100C400002950F7026D6E82E8823E9F0E12E1123B5
:100C5000D1F08C2F807F803461F080E28D0F88305E
:100C6000F8F08C2F807E803221F4D230C8F000233F
:100C7000B9F080913A0382FF13C082E0E0D609D632
:100C800091E0E82EE926BC2EB2949FE0B922FBE069
:100C9000FB1580F1EB2DF0E0E857F74D0C9414278D
:100CA000E12CF1CF0C2F0F70C07F11F00295007F67
:100CB000112381F0002349F080E28D0F883010F07D
:100CC000D11105C0802FEFD596D68D2F40C0802F33
:100CD000FAD5FACF8D2F30DF002361F080E28D0F3F
:100CE000883010F0D11103C0802FE3D502C0802FCF
:100CF000F0D581D6EB2DE850FF0B349708F04CC1AE
:100D00000E94701D35DECDB7DEB7E9E00C946A278E
:100D10002C2F2F70F22EC07FC03219F0F29480EF8A
:100D2000F822DD2341F0D13081F1112309F439C0DB
:100D30000023C9F0CACF80913A0382FD10C011236D
:100D400041F0FF2019F08F2DAED555D680E06DDE35
:100D5000D1CF80E0F1DEFF2069F28F2DC6CF1123C5
:100D600059F0011103C08F2D55DFC4CF013009F0B8
:100D7000C1CF8F2DC9D5BECF0111BCCF8F2D4FDF75
:100D80008F2DCDD58F2DB2D5B5CF112321F00630C3
:100D900008F0B0CFE8CF053008F0ACCF8F2D3FDFA3
:100DA000A9CF0023D9F3D93349F43FEF87EE93E07D
:100DB000315080409040E1F700C000008D2FBCDE34
:100DC00099CF8C2F86958695837069F0813009F0D4
:100DD00091CF8D2F9C2F9370111102C080E090E075
:100DE0000E94D91D87CF8D2F9C2F9370111102C0A7
:100DF00080E090E00E94B21D7DCF612F8D2F0CDE30
:100E000079CF8C2F837081F5111174CF4D2F4295BE
:100E100046954770440F440F2D2F2F7030E0042E5D
:100E200002C0220F331F0A94E2F790E080E0D4FF63
:100E300009C08FE090E002C0880F991F4A95E2F741
:100E400080959095C695C695C370822B932BC23022
:100E500039F040F4C13011F042D14CCF39D14ACFF2
:100E600045D148CF33D146CF8695112311F08C2F31
:100E70008170882309F43ECF4D2F429546954770E7
:100E8000440F440F2D2F2F7030E0042E02C0220F8C
:100E9000331F0A94E2F790E080E0D4FF09C08FE0AE
:100EA00090E002C0880F991F4A95E2F780959095CF
:100EB000C695C695C370822B932BC23039F040F48F
:100EC000C13011F067D116CF5ED114CF6AD112CFE5
:100ED0001AD110CFCF70112321F08C2F28D18D2F54
:100EE00043CF8D2F9CDE8C2F30D104CFD23F39F1F0
:100EF00060F4D03FB9F0D13F81F0112309F43CC038
:100F00000111E3CE8C2F8F711EC0D33FF1F0D43F7F
:100F1000A1F780913A0382FD20C08C2F8F7111239D
:100F200019F311C0112339F0053008F0E3CE8C2FEE
:100F30008F711BD1DFCE063008F0DCCEF8CF8C2FBE
:100F40008F711111D1CFF3D0D5CE112321F08C2F79
:100F50008F71E3D0CFCEDED0CDCE112329F063E068
:100F60008C2F8F7155D5C6CE81E069D5023008F43B
:100F7000C1CE82E064D5BECE002359F0D93309F04A
:100F80001DCFEFEFF7EE23E0E150F0402040E1F716
:100F900013CF8C2F8F71A8CFEE2009F4B4CE75D467
:100FA00080FDB1CEF60115826AD4C1D0C60117D03A
:100FB00066D4CBD0A8CE0F931F93CF93DF93EC01D1
:100FC000688179818D81A4D18C01F2D07ED0B80165
:100FD000CE012ADEDF91CF911F910F910895CF931B
:100FE000DF93EC018C81882381F0CE013CDC811100
:100FF0000FC04FD4882349F08D81882331F0809130
:101000003A0382FF02C082E01AD5DF91CF910895A2
:10101000CE01D1DFCE01DBDBF8CF90E080E00E9493
:10102000B21D90E080E00E94D91D5AD4E4D40E9401
:10103000BC1B0C94A31B0E94DA1EEFCF41D4FBCF44
:1010400092959F70963091F058F4925F9F70923015
:1010500058F4803F19F030F4883E30F481E0089570
:101060009A5FF4CF843FD1F380E00895883EB0F3D7
:10107000813FD1F7F3CFFC012481222321F080812D
:1010800091813DD1DDCF80E00895A6E0B0E0EBE4B2
:10109000F8E00C9455272696E2E00C947127A7E01F
:1010A000B0E0E5E5F8E00C9455272796E2E00C94D3
:1010B00071270895FECF0895FDCF0895FADFFCDF74
:1010C000909317028093160208950895F7CF08951C
:1010D0002091160230911702822B932BEFCF209193
:1010E00016023091170282239323E8CF2091160233
:1010F0003091170282279327E1CFDBCF0895FDCFF0
:101100000895D7CF0895FDDFFADF909315028093FD
:101110001402089590E080E0F6CF21E030E0A901CC
:1011200002C0440F551F8A95E2F7CA01ECCF21E0B7
:1011300030E002C0220F331F8A95E2F7809114023B
:1011400090911502822B932BDECF21E030E002C07C
:10115000220F331F8A95E2F7209530958091140273
:101160009091150282239323CECF21E030E002C07C
:10117000220F331F8A95E2F7809114029091150295
:1011800082279327C0CF2091140230911502822B21
:10119000932BB9CF2091140230911502822393230F
:1011A000B2CF209114023091150282279327ABCF42
:1011B0000895262F277091E001C0990F2A95EAF72C
:1011C00023E0769567952A95E1F7660F771F660FFE
:1011D000771FFA01E60FF71F50E040E0682F70E03C
:1011E0008191DF0111979B01042E02C0369527954E
:1011F0000A94E2F7217021952827292328272C9388
:101200004F5F5F4F4430510559F70895A82FA770DD
:1012100023E0969587952A95E1F7880F991F880F07
:10122000991FFB01E80FF91F50E040E080E0219199
:1012300030E00A2E02C0369527950A94E2F7217015
:101240003327042E01C0220F0A94EAF7822B4F5F46
:101250005F4F4430510559F70895262F9A3068F4AE
:10126000873058F4682F70E087E0989F600D711DFB
:10127000112440EF51E0822F9CCF0895292F9A30FE
:1012800058F4873048F490E060EF71E037E0239F36
:10129000800D911D1124BACF80E00895B0E0A0E048
:1012A000E4E5F9E00C944E277C01009114021091C2
:1012B00015028091160290911702082B192BCFE08E
:1012C000D0E0CC24C394D12CBC2EC6010C2E02C07D
:1012D000880F991F0A94E2F780239123892B49F400
:1012E000219790F7B12C8B2DCDB7DEB7E9E00C94A8
:1012F0006A27B7018C2F0CD6019791F3F4CFCF93C7
:10130000DF93EC01CBDFBE0103D6DF91CF910895CF
:101310001F93CF93DF93EB019091EF01992331F06D
:10132000CB01EDDFDF91CF911F910895882351F01C
:10133000CB01B4DF182F682FCE018FDFBE01812FC4
:10134000E7D5F0CFCB019ADF182FF8CF1F93CF93BB
:10135000DF93C091180217E0809119028C1304C02A
:10136000DF91CF911F910895D0E01C9FF0011D9F48
:10137000F00D1124E65EFD4F2081318142815381C1
:101380006481758186818BDE2196C770E5CF2091BF
:101390005202309153024091540250915502609193
:1013A0005602709157028091580279CECF93DF9305
:1013B00080915802807F09F04BC0809157028823AA
:1013C00009F446C0E091180250911902C0915302ED
:1013D000D0915202609154027091550247E05E171D
:1013E000B9F18E2F90E0E49FF0011124E65EFD4FED
:1013F0002481222381F1489FF001499FF00D11249F
:10140000DF01A65EBD4F11962C9111972C1323C0BE
:101410002C912D1320C015962C91159721111BC0CE
:1014200012962D913C91261B370B283C310598F4E0
:10143000809158028F70806180935802E05EFD4F6A
:1014400080818F708061808382E592E0C8DD7EDFDD
:10145000DF91CF910895FC013196E770C0CF482FFE
:10146000209118029091190257E0291302C080E0E0
:10147000089530E0529FF001539FF00D1124E65E75
:10148000FD4F8181681306C08081481303C08581A8
:101490008111EECF2F5F3F4F2770E7CFA4E1B0E07F
:1014A000E4E5FAE00C944B278C0186E0F801DE01BC
:1014B0001F9601900D928A95E1F7F8018481E580ED
:1014C00092E5A92E92E0B92E9091560291111AC080
:1014D0008823A9F0EE2089F0C801CDDDF82E8823FD
:1014E00061F087E0F801D50101900D928A95E1F74E
:1014F000C5018ADA5BDF4BDF59C0C80170DDFF240C
:10150000F39454C0C080D18082809380F0905702C1
:101510002091540230915502A401421B530BFF202D
:1015200009F4E9C0483C510508F09CC0882309F43F
:101530003DC09091530280915802282F207F09F0DE
:1015400056C09D1114C090915202C91210C0E110F2
:1015500048C08F7080618093580219DF82E592E065
:101560003EDD80915802F8018683F12C1FC0E11006
:1015700038C06D2D8C2D73DF6D2D8C2D70DFE82E16
:101580008111F3CFCF86D88A8F859889B8DE292F2D
:1015900022952F70243078F49F702230A0F0992388
:1015A000B1F0F8019681907F91F4FE2C8F2D649616
:1015B000ECE00C9467272A5F2F70223060F0C8019E
:1015C0000EDDEF2CF2CF992311F0882371F3805EAA
:1015D000883058F3F4CF803F40F3815F833078F751
:1015E000E4CF80915802816080935802BECF9D1154
:1015F00012C090915202C9120EC0E1100CC0868335
:10160000C801EDDC87E0F801A2E5B2E001900D929F
:101610008A95E1F770CFC8012EDD882309F46DCFDC
:10162000EE2009F46ACF80915802803280F0209138
:10163000520230915302398728879B868A8690917F
:1016400056029C871D868E87CE010896C8DC87E0EF
:10165000F801A2E5B2E001900D928A95E1F7A6DECD
:1016600096DE4DCF90915802292F207F89F4682D66
:101670009A8A898AA6017A899E2D07DD82E592E001
:10168000AEDC87E0F50111928A95E9F780DE6DCF37
:10169000882309F48BCF809153028D110FC0809164
:1016A0005202C8120BC0E11009C09683C80197DC32
:1016B00087E0F50111928A95E9F778CFC801DBDC64
:1016C000882309F41ACFEE2009F417CF809158022D
:1016D000803208F4BCCF20915202309153023A83F9
:1016E00029839C828B82909156029D831E828F83D8
:1016F000CE010196ABCF483C5105A8F5882309F4EB
:10170000FECEFE2CEE2009F4F8CE809153028D110E
:101710001EC080915202C8121AC08091580280FDEA
:101720000DC0982F907F51F08683903F09F468CFC9
:10173000982F907F905F8F70892B61CF87E0F801A1
:10174000A2E5B2E001900D928A95E1F72FCFC80192
:1017500092DC81117CCF8091580281608093580285
:10176000C8013DDC23CF682D9A8A898AA6017A892F
:101770009E2D8BDC87E0F50111928A95E9F7BBCEAF
:10178000AEE0B0E0E6ECFBE00C9454272887398704
:101790004A875B876C877D878E87CE0108967EDEC1
:1017A0008823A9F06C85662339F0288539854A8518
:1017B0005B857D858E8573DC17E0809118029091A2
:1017C000190289133BC02E96E3E00C94702787E042
:1017D000FE013896DE01119601900D928A95E1F78F
:1017E0008C85882349F32091190230E0C9010196C4
:1017F00087709927409118024817190691F097E0D1
:10180000929FD001939FB00D1124A65EBD4FFE01A3
:10181000319601900D929A95E1F78093190296DD29
:10182000CBCF0CDC109219021092180287E0E2E58F
:10183000F2E0DF011D928A95E9F7BECF819FC001DA
:101840001124865E9D4F2ADE882309F4BCCFE091E7
:1018500018021E9FF0011124E65EFD4F20813181A8
:101860004281538164817581868119DC80911802DF
:1018700090E0019687709927809318029ECF8091FF
:10188000810286958695869508958091810287705C
:10189000089590918102977081E009F480E00895A5
:1018A0008091AD0208959091AD02892B8093AD0295
:1018B000089580959091AD0298239093AD0208957C
:1018C0001092AD0208959091AC02892B8093AC02E6
:1018D000089580959091AC0298239093AC0208955E
:1018E0001092AC0208950895FECF0895909182025F
:1018F000292F282329F08095892380938202F4CF11
:1019000008950895FECF089590918302292F2823EA
:10191000281721F0982B90938302F4CF089590918B
:101920008302292F282329F080958923809383021D
:10193000E9CF089580918302882321F010928302D9
:1019400080E0E0CF0895CF93C091AD028091AC02CA
:10195000C82B80918302882329F0C82B0E94001E87
:101960008111E8DF8C2FCF910895CF93DF93C09141
:101970000601D0910701E7DF8883C0910601D0916D
:10198000070148E050E069E772E0CE010E941428A8
:10199000892B59F088E0FE01A9E7B2E001900D9291
:1019A0008A95E1F7CE010E94811DDF91CF910895C4
:1019B000CF93DF93C0910401D0910501C4DF8983E7
:1019C000C0910401D091050140E250E069E572E068
:1019D000CE010E941428892B59F080E2FE01A9E56E
:1019E000B2E001900D928A95E1F7CE010E948E1D22
:1019F000DF91CF9108950E94691D882329F080917D
:101A0000390387FF01C0D4CFB0CF0895FECF08952A
:101A100090913A0392FF0EC098E0899F90011124A3
:101A2000622B6093810283DB80918102869586958B
:101A30008695ECCF7CCB1092810280E0E7CF90912D
:101A400081028095892380938102282F277059F481
:101A5000891749F090913A0392FF05C086958695C3
:101A6000869573DBE8CF089590913A0392FB222785
:101A700020F9281749F080FB92F990933A0389E303
:101A800093E047D082E0DBCF089580913A0382FB58
:101A9000882780F991E08927E7CF81E0E5CF80E0D2
:101AA000E3CF60E070E0CB01E8C360E070E0CB0121
:101AB000DED3F7CFA3E0B0E0E0E6FDE00C945527DD
:101AC0002ED339D31B82CE0103964CD381E090E014
:101AD000909317028093160251D31A8219828A8139
:101AE00084618A83CE0101965AD31CD6DEDF239609
:101AF000E2E00C947127DECF089523C3089510C34C
:101B0000089525C3089534C3089538C308953BC389
:101B1000089545C308954AC3089589C30895B3C37A
:101B20000895A6E0B0E0E7E9FDE00C9453270E9499
:101B300006208C018091AE029091AF028017910730
:101B400081F019821A820E940620682F49815A81E9
:101B5000792F80E090E00E94D7041093AF020093A9
:101B6000AE022696E4E00C946F270E941220609348
:101B7000BE027093BF028093C0029093C102609333
:101B8000BA027093BB028093BC029093BD02089589
:101B900008950895FDCF08950895FEDFFBCF0895C1
:101BA000FECF08950895FEDFFBCF8BE790E1ACD424
:101BB000F0DFF3CF81E00895FDCF0895FBCF0895C6
:101BC000089508950895FCDFFCDFFCCF98DF8111B4
:101BD00001C091DF82EC92E094DF89E393E097DF2C
:101BE0000E94511990DF72DA8091140290911502CF
:101BF00086CA0E94FD1FF1D3E9DF0E94B7040E944C
:101C00002818D1CFA6E0B0E0E8E0FEE00C944C2725
:101C1000D3DF81110BC085DF0E94F9180E94DE1B03
:101C20000E94BF042696EBE00C946827E8D380EB73
:101C3000A82E82E0B82E750110E0F70101917F0116
:101C4000812F2CD31F5F1A3009F43DC00817A9F368
:101C50008091C20281FD28D3B1DFC82E10E0992403
:101C60009394812F1BD3082FF50181915F010817F1
:101C700029F1F12CEE24E394D02ED8268D2D8E213F
:101C8000A9F0CC2099F0F9821A830E9406209C8347
:101C90008B839D8291E0802F8E2109F490E0498111
:101CA0005A816B817C818D810E94D704F394EE0C64
:101CB000F7E0FF12E3CFF501319700831F5F1A3081
:101CC00081F653DFA9CF0813C3CFA5CF1F93CF93BE
:101CD000DF9320D1EC01C11580E5D807F0F5C115DF
:101CE00080E4D80708F09AC0C03ED10520F5CD3C6D
:101CF000D10508F082C0C83AD10578F4C53AD105BB
:101D000008F073C0C130D10519F1209709F1C43032
:101D1000D105F0F4D0E0C0E01BC0C33CD105D0F742
:101D2000C85AD0E0CC0FDD1FC659DE4F0990D881CC
:101D3000C02DD4640DC0C11580E2D80708F0CDC015
:101D4000C11581E0D80708F05AC0C83ED10510F788
:101D5000CE01DF91CF911F910895C03682E5D8075B
:101D600018F5C03482E5D80708F068C0C03282E5B3
:101D7000D80708F05CC0C11582E5D80708F493C005
:101D80002C2F2695269580E2289F900111248C2FD8
:101D90008370C1E0D0E002C0CC0FDD1F8A95E2F76E
:101DA000C22BD32BDD68D4CFC03A82E5D80760F4CC
:101DB000C03882E5D80708F456C0CF71D0E0DC2FD8
:101DC000CC27C46FD06AC4CFC03C82E5D80708F4E2
:101DD0005FC0C03E82E5D80708F09CCFDC2FCC273F
:101DE000CC27DF71C06FD06AB3CFC55AD0E0C056E0
:101DF000DE4FC881D0E0D064ABCFD065A9CF8D2FA6
:101E00002BD1182FCE01992785D0C12FD0E0DC2F00
:101E1000CC27CC27DF71C82BD92B9ACFCE0199279D
:101E200079D0CC27DF70C82BD92BD06A91CFCF7156
:101E3000D0E0DC2FCC27C16FD06A8ACF2C2F26951B
:101E40002695277080E2289F900111248C2F8370A3
:101E5000C1E0D0E002C0CC0FDD1F8A95E2F7C22BB3
:101E6000D32BDC6875CF2C2F26952695277080E222
:101E7000289F900111248C2F8370C1E0D0E002C014
:101E8000CC0FDD1F8A95E2F7C22BD32BDA6860CF27
:101E90008C2F8F71E1D0C82FD0E0DC2FCC27CC273E
:101EA000DF71D06255CF8C2F8F71D6D055E0D6958B
:101EB000C7955A95E1F7CF70D0E0DC2FCC27282FBB
:101EC00030E084FF06C044E0220F331F4A95E1F75B
:101ED0003327C22BD32BD0693BCF8D2F8F71BCD032
:101EE000182FCE01992716D0C12FD0E0DC2FCC2798
:101EF000CC27DF71C82BD92BD4CF462F7A3028F4CA
:101F0000673018F4672F0C948A0390E080E00895FE
:101F1000F4DFDCCE82389105B9F1B0F4813391055C
:101F200009F47DC048F48932910509F46DC08A3204
:101F3000910509F47BC008958533910509F45FC0CC
:101F40008933910509F10895833E9105D9F138F45B
:101F5000803E910529F1823E910579F10895863EF2
:101F60009105D9F1873E910509F43EC0843E910563
:101F700041F520913A0321FF24C08091390384FD6B
:101F800019C087EE90E0089520913903237009F07D
:101F90005AC020913A0323FF14C089E290E00895CB
:101FA0002091390320FD38C030913A0330FF09C039
:101FB00024FF43C090E080E008952091390322FD82
:101FC000F7CF08952091390322FD3AC030913A03AA
:101FD00030FD39C024FFF5CFEDCF2091390323FF29
:101FE000F0CF24FDE7CFCDCF2091390323FD2EC0C4
:101FF00030913A0331FFEECF84EE90E008952091C6
:10200000390325FFDECFC9CF2091390325FD21C03B
:1020100020913A0323FFD5CF89E390E0D2CF2091DE
:10202000390326FFCECF8AE290E00895209139034C
:1020300026FFC7CF81E390E0089583EE90E00895F6
:1020400082EE90E0089580EE90E0089586EE90E0B4
:10205000089585E390E008959091390392FF10C0B0
:1020600041E0282F2471243009F040E031E0282F8E
:102070002871283009F030E0431711F02CE0822756
:1020800093FF10C041E0282F2471243109F040E073
:1020900031E0282F2871283109F030E0431711F082
:1020A0002CE0822730913A0330FF10C051E0282FF6
:1020B0002171213009F050E041E0282F28712830AB
:1020C00009F040E0541711F029E0822731FF10C0D9
:1020D00041E0282F2171213109F040E031E0282F23
:1020E0002871283109F030E0431711F029E08227E8
:1020F00094FD877E089580E00895CF939C01205E33
:102100003245C1E02032310538F4FB01C581C111EF
:1021100003C08F710E9403048C2FCF9108950895FE
:1021200090E080E00E94372821E0833E9E4F09F036
:1021300020E0822F089563EE7EEF90E080E00C9423
:1021400056286FEF7FEF90E080E00C945628CF93F5
:10215000DF93EC0182E090E00E942A288883DF91DF
:10216000CF910895FC01608182E090E00C943C28BE
:1021700083E090E00E942A2890E00895682F83E091
:1021800090E00C943C28CF93DF93EC0184E090E046
:102190000E94372899838883DF91CF910895FC01AD
:1021A0006081718184E090E00C9456284F925F9298
:1021B0006F927F928F929F92AF92BF920F93CF9325
:1021C000DF93EC0188E090E00E9432282B013C0173
:1021D000688359828A837B821C821D821E821F82B1
:1021E00083E290E00E942A28282F30E040E050E06F
:1021F00060E070E080E090E000E20E947C2724290B
:10220000352946295729288339834A835B836C8380
:102210007D838E839F83DF91CF910F91BF90AF908D
:102220009F908F907F906F905F904F9008950F9345
:10223000CF93DF93EC01488159816A817B8188E0EB
:1022400090E00E944E28288139814A815B816C810F
:102250007D818E819F8100E20E949727622F83E219
:1022600090E00E943C28DF91CF910F910895AB013F
:10227000BC018FE090E00C944E28AB01BC0183E1DF
:1022800090E00C944E28682F8EE090E00C943C284F
:102290000895FECF08950895FECF0895E82FF0E049
:1022A000EB5BFC4F80810895089580EA8A95F1F7F1
:1022B000089500C00895F9CF0895F894E82FE295A5
:1022C000EF70F0E031A1282F2F7081E090E001C085
:1022D000880F2A95EAF7982F9095932391A392A1BE
:1022E000892B82A3789408950F931F93CF93DF9344
:1022F000CAEAD1E089918F3F09F0DFDF81E0C43B7A
:10230000D807C1F7C3EAD1E00AEA11E089918F3F0B
:1023100009F0D3DF0C171D07C9F7DF91CF911F918B
:102320000F910895B0E0A0E0E8E9F1E10C944F27A7
:10233000EC01D62E062F10E0C80186559E4F7C0179
:10234000FC0180818F3F09F441C0F894E82FE295A9
:10235000EF70F0E091A18F7021E030E001C0220F1A
:102360008A95EAF7892F822B81A382A120952823C1
:1023700022A378949EDFE3EAF1E031E0C12C2191C1
:102380002F3F49F1A22FA295AF70B0E090968C91AB
:1023900090E02F7002C0959587952A95E2F780FD11
:1023A0001AC0832FC82A330F81E0EA3AF80739F7B9
:1023B000F70180818F3F09F080DF61E0C11001C02B
:1023C00060E08D2D78DFC00FD11FC882CDB7DEB79A
:1023D000E8E00C946B2780E0E5CF86DF8AE0E5E457
:1023E000F3E0DF01982F1D929A95E9F7EBE3F3E014
:1023F000DF011D928A95E9F78AE039D04ACFAAE039
:10240000B0E0E5E0F2E10C9452278E010F5F1F4F20
:102410008AE0F80111928A95E9F7F12C6F2DC80135
:1024200081DFF394FAE0FF12F9CF4AE050E0B801FF
:102430008BE393E00E94142821E0009709F420E048
:10244000892B41F08AE0F801ABE3B3E001900D92F3
:102450008A95E1F74AE065E473E08BE393E008D006
:10246000182F1ADF812F2A96E5E00C946E27089525
:10247000B0E0A0E0EEE3F2E10C944F276C017B01A9
:10248000042FC22F222379F081E08093C5020E949D
:1024900006209093C4028093C30280E0CDB7DEB7DC
:1024A000E8E00C946B27D091C502DD23B1F3809155
:1024B000C3029091C4020E94971F059770F310E029
:1024C000A801B601C7010E941428892B31F0A80188
:1024D000B601C7010E942128CD2F1092C5028C2F72
:1024E000DDCF90CB08950E94A01F0E9499215DDB53
:1024F0000E94B1217EDB0E94BA210E94BD21F1DF42
:102500000E94D32160DBF9CF9093E9018093E80129
:1025100008950F931F93CF938C01FB01C581CC23AA
:1025200009F43BC0BDD98272F801E052F847EB30A4
:10253000F10530F4EC56F74D0C94142781D5C0E02A
:102540008C2FCF911F910F910895882321F06CD586
:10255000F6CF8823E1F35CD5F2CF882321F022D295
:10256000EECF8823E1F313D2EACF882321F034D2CF
:10257000E6CF8823E1F323D2E2CF882321F046D2AD
:10258000DECF8823E1F335D2DACF882321F0F1D0F2
:10259000D6CF8823E1F3DED0D2CFC1E0D1CFEF9206
:1025A000FF920F931F93CF93DF939B01682F3111FD
:1025B0000EC0442329F0E82FF0E0EA50FC4F64916C
:1025C000762F862FCDB7DEB7E6E00C946D27C32FAC
:1025D000D0E0E82FF0E0442321F0EA50FC4FE491F2
:1025E000F0E046E0249FC00111240FEF10E0B80195
:1025F0000E94CB26AB01822F90E0880F991F25E522
:10260000249FB001259F700D1124861B970B982FD6
:10261000990F980FB8016C1B7D0B6E9FD0016F9FB7
:10262000B00D7E9FB00D11248B2F939F900111242C
:10263000232F3327B801621B730B6E9F90016F9F8E
:10264000300D7E9F300D11247801E91AF108EC9EBF
:10265000B001ED9E700DFC9E700D1124672F772741
:10266000061B170B0E9FE0010F9FD00D1E9FD00D74
:1026700011247D2F9E2F4230510599F048F44115C9
:10268000510569F04130510581F07B2F832F07C040
:102690004430510569F080F046305105B1F7692F9B
:1026A00091CF9B2F8D2F7E2FFACF7E2F932FF7CF99
:1026B0009D2F7B2F8E2FF3CF732F9B2FFBCF41E0CE
:1026C0006ECF0895FCCF089590910B01291B922F96
:1026D000E091E101F091E201242F462F682F892F2C
:1026E00090E009950895CF93DF93762FE901682F45
:1026F000842FE8DF962F672F9E01482F892FE4DF74
:10270000DF91CF91089580914F03982F9C7F29F4FA
:102710008370846080934F0308958C3AE8F383704C
:10272000886AF8CFEFE4F3E085E0808311828FEFD1
:10273000828383831482CF01F0C990915303933035
:1027400018F49F5F90935303882319F08FE493E06C
:10275000E4C9089581E0F1CF90915303992319F0D2
:10276000915090935303882319F08FE493E0D5C9D7
:10277000089581E0F1CF0F931F93CF9380914F0382
:1027800080FF09C0E091E501F091E6010995CF9144
:102790001F910F910895C0910D010091E1011091D9
:1027A000E20180910E01C81768F780910B019C2F00
:1027B000981B892F20E040E060E090E0F801099547
:1027C000CF5FEFCFEF92FF920F931F93CF93DF93E3
:1027D000D82F162F042F80914F0380FF0BC0C0917C
:1027E0000D01E090E101F090E20180910E01C81727
:1027F00030F0C1DFCDB7DEB7E6E00C946D278091F5
:102800000B019C2F981B892F202F412F6D2F90E0BB
:10281000F7010995CF5FE9CF762F90914F0390FF95
:1028200008C0682F842F4EDF962F672F482F892FDF
:10283000C9CF0895CF93DF93EC01EC81F0E0EF5026
:10284000FD4F4491EFE4F3E062818181E5DF8C810B
:102850008F5F8C83DF91CF910895CF93DF93EC014D
:10286000EFE4F3E0438162818C81D6DF8C818F5F5E
:102870008C83DF91CF910895CF93DF93EC0140914A
:1028800052039C81892F817090FD842F692F627083
:1028900091FD642F92FF40E095DF8C8190E00196DE
:1028A000877099278C83DF91CF910895B0E0A0E0E5
:1028B000ECE5F4E10C945027D82FF62E042FE22EED
:1028C00090914F0390FF21C0E92FE695E695AE2F3A
:1028D000B0E0AC54BE4F8C91809317039C7F943032
:1028E000C9F46D2F7F2D842FEDDE962F672F482F93
:1028F000892F68DFD0935003F09251030093520365
:10290000EE2019F08FE493E008D9CDB7DEB7E7E009
:102910000C946C27823019F400915203EBCF86306F
:1029200019F4D0915003E6CF8930D9F3893111F7EA
:10293000E9518E2F8170D82EE695F0E0EF50FC4FD4
:10294000C49110E060910F01161710F014DFD2CF80
:102950001C9FC001112470E00E94CB268D2FD11046
:102960000BC0860F20910D01210F3327331F402FFD
:102970006F2DB9DE1F5FE6CF861BF4CFEFE4F3E0E7
:102980009181282F4381628188E0890F8FCF81E078
:10299000F5CFEFE4F3E09181282F4381628188EF46
:1029A000890F84CF81E0F5CFEFE4F3E0628121E18C
:1029B000620F08F46FEF282F4381818177CF81E088
:1029C000F3CFEFE4F3E0628121E1621B08F460E001
:1029D000282F438181816ACF81E0F3CFEFE4F3E0D8
:1029E000438121E1420F08F44FEF282F628181815A
:1029F0005DCF81E0F3CFEFE4F3E0438121E1421BBF
:102A000008F440E0282F6281818150CF81E0F3CF2C
:102A100020E04CCFEF92FF921F93CF93DF93EC0116
:102A200010E0EE24EA94F12C60910F01161768F083
:102A3000A2DE9A818C8190FF1DC08F5F8C83DF9115
:102A4000CF911F91FF90EF90089520910D01210FDC
:102A50003327331F70E0C7010E94DF26962F8C8139
:102A60004091520360915103199F800D11243BDE68
:102A70001F5FDACF8150E2CFB0E0A0E0E2E4F5E101
:102A80000C944D27FC018281DFEF80FFD1E0C0E094
:102A90000091E1011091E2012EE0A22E80910F0140
:102AA000C81790F068DE8091C702D13009F04FC09E
:102AB000811102C080910F0181508093C702CDB770
:102AC000DEB7EAE00C94692780910D0190910B012B
:102AD000891B8C0F20E040E060E090E0F801099550
:102AE00094E0E92EF12CB12CCC2ED12C8091C70290
:102AF0008B0D8F3034F16A2D0E94BE26892F082E4F
:102B0000000C990BC816D906A9F420910D012C0DC3
:102B10003D2D311D809152038E9DA0018F9D500D42
:102B2000112455954795559547956091510380918E
:102B30005003D9DDBD0EF1E0EF1AF108B9F6CF5F11
:102B4000ADCF87FFDCCF90910F01890FD8CF90E0F8
:102B5000019660910F0170E00E94DF26AECF0F93C7
:102B60001F93CF93C0910D010091E1011091E201FB
:102B700080910E01C81748F1C0E00091E101109169
:102B8000E20160910F01C61768F1F5DD209109019E
:102B90008091C602820F8093C60290910A01920F23
:102BA00090930A01191654F4082E000C990B4091C9
:102BB0000F014150550B841795071CF02195209368
:102BC0000901CF911F910F91089580910B019C2FC6
:102BD000981B892F20E040E060E090E0F801099523
:102BE000CF5FC6CFEC2FF0E070E0CF010E94DF2670
:102BF00020910D01820F2091C602022E000C330B92
:102C0000E217F3079CF020910A01022E000C330B0F
:102C10002E173F075CF0282F30E04091520360915F
:102C20005103809150035FDDCF5FABCF90910B01DB
:102C3000891B20E040E060E090E0F8010995F4CFC6
:102C4000B0E0A0E0E6E2F6E10C944B27EC014C8109
:102C5000042F10E09801D8010E9420279B01AC01AD
:102C60000E9435274B015C01E0E2F0E0E01BF10B34
:102C7000A5E5B0E0AC019B010E9435276B017C010A
:102C80009F01DF010E941A279B01AC010E943F2790
:102C90009B01AC01280D391D4A1D5B1DC701B60102
:102CA0000E94F226F22E822F90E039E23F1518F1B1
:102CB00043E0249F9001112435952795122F1095FC
:102CC00000E085E5E82EEF1880910F01081718F154
:102CD00052DD9C8181E0992319F0903219F48FEF35
:102CE0008093080180910801890F8C83CDB7DEB7EE
:102CF000ECE00C94672725E530E0A901481B590B4F
:102D0000CA019A01220F331F280F391F37FFD4CF72
:102D10002F5F3F4FD1CF8E2D01FD8F2D20910D01C3
:102D2000200F3327331F412F60915103DCDC0F5FED
:102D3000CBCF0F931F93CF93DF938C01D0E0C0E0F4
:102D400090910F019C171D0609F06CF414DDF80139
:102D5000848190E00196817099278483DF91CF91DF
:102D60001F910F910895F801448120910D012C0FBE
:102D70003D2F311D609151038091500396959C1712
:102D80001D0641F03CF0442339F040915203ABDC86
:102D90002196D6CF4423C9F340E0F9CFB0E0A0E0BC
:102DA000E4EDF6E10C944727FC016280448081E069
:102DB0008483E1EFF2E07490E0E7F3E0E491C09106
:102DC0005203C695C158D0E0CC0FDD1FCD2FDD27B3
:102DD000812C25E0922EAA24AA94B12C55245A9431
:102DE000E719EE2EF12C80910F01881630F0C3DC2C
:102DF000CDB7DEB7E0E10C946327C82CD12C82E07C
:102E0000861568F09C9CF0019D9CF00D1124E85300
:102E1000FD4F809150038083809151038183411045
:102E20001BC09C9CF0019D9CF00D1124E853FD4FAC
:102E30001382128220910D012C0D3D2D311D9C9C81
:102E4000F0019D9CF00D1124E853FD4F42816181FA
:102E5000808149DC8394C7CF9C9C80019D9C100D90
:102E6000112408531D4FF80183818823F1F081500C
:102E70008383859DC0011124648170E00E94CB266C
:102E8000FB01FF27EF50FD4F8491E82FE719E59DE7
:102E9000C0011124B7010E94CB2680915203689F84
:102EA000B0011124F8017283C5CF0E94F927B50142
:102EB0000E94DF268C179D070CF0BCCFF2E0F615C0
:102EC00098F40E94F927B5010E94DF26F80180835B
:102ED0000E94F927209151032695622F70E00E94ED
:102EE000DF26280FF80121839C9CF0019D9CF00DAA
:102EF0001124E853FD4F128280915203893C58F00F
:102F000088EC9C9CF0019D9CF00D1124E853FD4F32
:102F1000848383838FCF8431A0F784E1F2CFEFE401
:102F2000F3E080818E7F8083CF010E948D0D10920F
:102F3000180321CCEFE4F3E080818E7F8083109230
:102F4000180319CC1092180380911503811109C040
:102F500081E08093150380914F0381708093140367
:102F6000E9CF089560914F036695669570E04BE058
:102F700050E080E191E00E940728892B19F481E05C
:102F8000809318030E94062090930F0380930E03F2
:102F9000089590914F0390FF25C09370811123C035
:102FA000946090934F03662321F08FE493E00E9496
:102FB0008D0D60914F036695669570E04BE050E093
:102FC00080E191E00E940728892BA9F01092180354
:102FD00081E08093110340915203609151038091ED
:102FE000500316CD08958B3210F0986ADACF880F0F
:102FF000880F982BD6CFB6DFEBCF682F90914F0379
:103000009695969581E0890F8B3208F081E0C1CFCB
:1030100081E0F3CF682F90914F03969596958FEFAF
:10302000890F09F48AE2B5CF81E0F4CF61E0B1CF36
:10303000EFE4F3E080818160808386958695F6CF0A
:1030400080914F0380FF01C06ACFF2CF60E0A1CF33
:103050008091160381111FC08FE493E00E948B0DB5
:1030600080914F038C7F29F45DDB8FE493E00E9415
:103070008B0D49DB10921803E091DF01F091E00124
:10308000099580914F0380FF03C086958695DEDF0A
:1030900081E0809316030895EFE4F3E0808181607E
:1030A000808386958695D2CF109215038091140364
:1030B0008111F2DF57CF0F931F93CF93DF9380914E
:1030C00018038823B1F180911703E0914F03E6952F
:1030D000E695E81BE0931003823081F5F0E0E351C0
:1030E000FD4FE491CE2FD0E00AE114E1809111036D
:1030F000882359F01092110389D790930F0380937E
:103100000E03109213031092120380D7E0910E0366
:10311000F0910F038E1B9F0B8F3F9F4750F4EC0FD6
:10312000FD1FF0930F03E0930E038EE093E0F80190
:103130000995DF91CF911F910F910895863049F441
:10314000F0E0E651FD4FE491CE2FD0E00DE214E126
:10315000CDCF893051F4E695F0E0E951FD4FE4918F
:10316000CE2FD0E00AE015E1C1CF8F3051F4E695C3
:10317000F0E0EC51FD4FE491CE2FD0E00CE315E1EF
:10318000B5CF853149F4F0E0EF51FD4FE491CE2FFA
:10319000D0E00FEA15E1AACFC8E2D0E000E216E1E4
:1031A000883109F4A3CF833239F4EFEDF2E0C59111
:1031B000D4910CE314E19ACFC4EFD1E009E916E110
:1031C000843209F493CFC0EDD7E001E613E18532F4
:1031D00009F08CCF8E2F63E00E94B226E92FF0E039
:1031E000E452FD4FE491CE2FD0E00EEC16E17ECFFD
:1031F000089561CF0895539A0895FC01EE0FFF1FC3
:10320000E80FF91FE95AFC4F618340832283089538
:10321000E7E5F3E0818360834283339693E0E1380E
:10322000F907C1F708953BB1377F2BB128604FB73D
:10323000F89487E593E0FC015191CF0168E02BB948
:10324000000000C057FF3BB9550F000000C000C090
:1032500000C03BB900C06A9591F7F3E081389F0741
:1032600051F74FBF8FE594E00197F1F700C00000E0
:1032700008950C947D0D089580E010D88170089514
:10328000BED82FEF86E791E0215080409040E1F7D3
:1032900000C00000B4D8F0DF882311F0EADFF2C6E6
:1032A0000895EECF0895CF93DF93EB0186319C47CD
:1032B00001F50E94500C9D81992391F08A7A91E04A
:1032C00009F490E090931903811108C089E244D574
:1032D0000E94FB0C80E0DF91CF91089585E3F7CF4A
:1032E00080911903811103C089E24DD5F1CF85E3A7
:1032F000FCCF81E0F0CFCF93DF93EC01FB01858120
:10330000882309F4CEC09E0130572332310508F0DE
:10331000AEC089E393E00E94870DFE01E150F047C3
:10332000E232F10520F4E156F74D0C941427809118
:10333000390381608093390393C080913A03886098
:1033400080933A038DC0809139038260F3CF8091DE
:1033500039038460EFCF809139038860EBCF80918F
:103360003A038160EDCF80913A038260E9CF80918A
:1033700039038061DFCF809139038062DBCF809198
:1033800039038064D7CF0E941E088091390380687A
:10339000D1CF809139038C60CDCF80913A03836087
:1033A000CFCF809139038E7FC5CF80913A03877F3D
:1033B000C7CF809139038D7FBDCF809139038B7F3B
:1033C000B9CF80913903877FB5CF80913A038E7F43
:1033D000B7CF80913A038D7FB3CF809139038F7E31
:1033E000A9CF809139038F7DA5CF809139038F7B41
:1033F000A1CF0E941E08809139038F779BCF8091C7
:103400003903837F97CF80913A038C7F99CF809146
:10341000390382FB992790F921E0922790FB82F9EA
:1034200090FB83F987CF80913A03982F9095917004
:103430008E7F892B90FB81F983CF90913903892F5F
:103440008F7B96FF806476CF0E941E08909139038F
:10345000892F97FB87F980586DCF81E00E948F0DEF
:1034600089E393E00E94890D0E941E0880E0DF91AD
:10347000CF91089580E0F2CF90913903892F8F7E0C
:1034800094FF806157CF90913903892F8E7F90FFF1
:10349000816050CF90913A03892F877F93FF886096
:1034A0004FCF81E0E4CF282F35EB2303C001112457
:1034B00097FF04C080589109892F089580589F4F25
:1034C000FBCF8091200380FF0DC06091200170E050
:1034D000660F771F6038710570F56115710569F128
:1034E000862F089581FF07C06091200184E0689FC6
:1034F000B0011124EFCF6091200182FD0AC08091BC
:103500001F038823A9F020911F01609120018217D9
:1035100010F088E0ECCF869FC001112433E0880FC3
:10352000991F3A95E1F7622F70E00E94DF26D2CF13
:1035300068E070E0D5CF8FE7089581E0089580912D
:10354000200380FF0CC060911C0170E075956795A9
:10355000759567956115710549F1862F089581FF6D
:1035600006C060911C0170E075956795F3CF60917E
:103570001C0182FD0BC090911E039923A1F0609164
:103580001B0180911C01961738F0682F70E060389D
:10359000710500F38FE70895899FC001112470E041
:1035A0000E94DF26F4CF61E070E0D7CF81E008957C
:1035B0008D3C29F486DF81958093240308958E3C09
:1035C00011F47FDFF9CF8F3C29F47BDF8195809365
:1035D00023030895803D11F474DFF9CF893D21F470
:1035E000AEDF8093250308958A3D19F4A8DF819505
:1035F000F8CF8B3D29F4A3DF8195809326030895AE
:103600008C3D11F49CDFF9CF9FE2980F983070F455
:10361000815D990B21E030E001C0220F8A95EAF725
:1036200080912203822B8093220308958D3D31F4F3
:103630008091200381608093200308958E3D21F4C2
:10364000809120038260F7CF8F3DB9F780912003EE
:103650008460F1CF409123038D3C59F48091240381
:1036600087FF0DC01092240341110BC010921F035D
:1036700008C08E3C81F48091240318169CF34423E7
:1036800081F08091250390912603892B09F05AC07F
:1036900010921E0308958F3C49F447FFF0CF10921B
:1036A0002303809124038111ECCFE0CF803D19F4F6
:1036B0001416ACF3E4CF90912503893D29F4191633
:1036C000F4F610922503DBCF8A3D19F497FFD7CF8C
:1036D000F8CF909126038B3D29F497FFD0CF10921D
:1036E0002603CDCF8C3D19F41916CCF3C8CF9FE239
:1036F000980F983090F4815D990B21E030E0B9018A
:1037000002C0660F771F8A95E2F7CB0180959091F2
:103710002203892380932203B2CF8D3D31F480911F
:1037200020038E7F80932003AACF8E3D21F48091C9
:1037300020038D7FF7CF8F3D09F0A1CF809120032B
:103740008B7FF0CF089562D49C01909123038091E8
:103750002403982B21F030931D0320931C03909198
:10376000250380912603982B21F030931B0320938F
:103770001A0381E293E0E4C186E0E1E2F3E0DF01D5
:103780001D928A95E9F710921F0310921E03109262
:1037900020030895FC01828181110EC08381811173
:1037A0000BC08481811108C091E08581811101C025
:1037B00090E0892F8170089581E0FCCFA6E0B0E011
:1037C000E4EEFBE10C94542786E0E1E2F3E0DE0155
:1037D000119601900D928A95E1F7109223031092B1
:1037E000240310922503109226038B819C81892B40
:1037F00081F080911C0390911D0399D3AC019091AD
:103800001F039923A9F1809121018417150608F45B
:103810003CC08D819E81892B89F080911A03909103
:103820001B0385D3AC0190911E03992309F463C057
:1038300080911D018417150608F46BC0BE016F5FEF
:103840007F4F81E293E0CFD2811104C081E293E007
:10385000A1DF811178DF86E0FE013196A1E2B3E0BD
:1038600001900D928A95E1F72696E3E00C9470277B
:10387000209122018AE0289F900111242417350706
:1038800040F69F5F90931F0302C09F3FD1F71B81BB
:10389000112351F016DE9FEF11160CF491E0899F71
:1038A000802D1124809323031C81112351F009DE04
:1038B0009FEF11160CF491E0899F802D11248093C5
:1038C000240380912303882309F4A3CF10912403B8
:1038D000112309F49ECFE7DD882349F08093230369
:1038E000812FE1DD882329F08093240392CF81E0AA
:1038F000F5CF81E0F9CF20911E018AE0289F900149
:1039000011242417350708F099CF9F5F90931E0369
:1039100002C09F3FD1F71D81112351F010DE9FEFB0
:1039200011160CF491E0899F802D112480932503BA
:103930001E81112351F003DE9FEF11160CF491E06C
:10394000899F802D1124809326038091250388234D
:1039500009F474CF10912603112309F46FCFA3DD6E
:10396000882349F080932503812F9DDD882329F04A
:103970008093260363CF81E0F5CF81E0F9CF0F93E9
:103980001F93CF93DF93C42FD22FFC01858188230F
:10399000C1F0409329033AD39093280380932703DF
:1039A00080E28C0F883040F4C77081E001C0880F3E
:1039B000CA95EAF70E940A06DF91CF911F910F91F5
:1039C000089510912903141331C080912703909119
:1039D0002803ADD2883C910548F5C0E2CD0F1D17F4
:1039E000B9F080E2810F883040F4177081E001C0A7
:1039F000880F1A95EAF70E940F06C83048F481E054
:103A00009D2F977001C0880F9A95EAF70E940A06C9
:103A1000802F0E940306C83078F6D77081E001C07D
:103A2000880FDA95EAF70E940F06C6CF80E28C0F66
:103A3000883010F6C77081E001C0880FCA95EAF798
:103A4000F2CF0F93DB0188519C478730910598F5A1
:103A5000FC01EF53F74D0C94142706E221EE41EEE2
:103A60006AE17CE7CD018BDF80E00F91089507E2EA
:103A700025EE45EE6BE17CE7F5CF06E221EE40EE68
:103A800068E17CE7EFCF07E225EE44EE69E17CE7F1
:103A9000E9CF06E221EE42EE6CE17CE7E3CF07E2FC
:103AA00025EE46EE6DE17CE7DDCF08E221E045EE54
:103AB0006EE17CE7D7CF15968C91882319F0109290
:103AC0002903D3CF81E0D1CF90932F0380932E038E
:103AD0000895F4D191E0813009F090E0892F0895A4
:103AE000E0912E03F0912F03309739F00190F0818F
:103AF000E02D309711F00995089580E00895F0CFFA
:103B00000895E0912E03F0912F03309731F0028059
:103B1000F381E02D309709F009950895E0912E0387
:103B2000F0912F03309759F024813581232B39F000
:103B300026E0DC012C930480F581E02D09950895A1
:103B4000E0912E03F0912F03309759F026813781B1
:103B5000232B39F022E0DC012C930680F781E02D45
:103B600009950895A3E0B0E0E8EBFDE10C9455273A
:103B700020912C0330912D0328173907B1F0909331
:103B80002D0380932C03E0912E03F0912F033097A7
:103B900061F00084F185E02D309739F023E029832E
:103BA0009B838A83CE01019609952396E2E00C94CB
:103BB0007127A3E0B0E0EFEDFDE10C9455272091D3
:103BC0002A0330912B0328173907B1F090932B0368
:103BD00080932A03E0912E03F0912F03309761F038
:103BE0000084F185E02D309739F024E029839B8310
:103BF0008A83CE01019609952396E2E00C94712701
:103C0000CF93DF93C0910601D0910701229661DF27
:103C1000882381F08091390387FF0CC0C091040193
:103C2000D091050122969EE180E0915028F4DF9129
:103C3000CF91089596E0F8CF29912223B1F38F5FB9
:103C4000F4CFCF93C82F811102C080E023C041DFA1
:103C5000882311F18091390387FF1EC0EC2FE69570
:103C6000E695E695EE3188F7809104019091050183
:103C7000E80FF92FF11D228130E0C77081E090E05C
:103C800002C0880F991FCA95E2F72823392381E0E3
:103C9000232BD9F2CF9108958091060190910701CD
:103CA000FC013296089621912C1721F0E817F907AC
:103CB000D1F7CBCF81E0EECF9C01FC0132969FEF94
:103CC00080E04191461751F09F3F19F4411101C026
:103CD000982F8F5F8630A9F79F3F09F40895290F29
:103CE000311D97FD3A95F90162830895FC013296E2
:103CF00008962191261303C0DF0111971C92E81743
:103D0000F907B9F70895E62FE695E695E695EE31C1
:103D100068F4E80FF92FF11D677021E030E001C071
:103D2000220F6A95EAF78281822B82830895E62F1B
:103D3000E695E695E695EE3170F4E80FF92FF11D62
:103D4000677021E030E001C0220F6A95EAF7209504
:103D50008281282322830895CF93C82FBADE6C2F47
:103D6000882359F08091390387FF07C080910401AF
:103D700090910501C8DFCF9108958091060190913F
:103D800007019ADFF8CFCF93C82FA3DE6C2F8823CB
:103D900059F08091390387FF07C080910401909109
:103DA0000501C5DFCF91089580910601909107012B
:103DB0009DDFF8CF8EDE882379F08091390387FF6D
:103DC0000BC0E0910401F091050132968EE1DF0114
:103DD0001D928A95E9F70895E0910601F091070197
:103DE000329686E0F4CFDC01FB0111969C9111978D
:103DF0008181981322C012968C911297882319F012
:103E0000928189131AC013968C911397882319F005
:103E10009381891312C015968C911597882319F0F8
:103E2000958189130AC014969C91992321F081E011
:103E30002481291303C080E001C081E081700895CE
:103E40000895FECF089581110CC081E08093260172
:103E500060912301709124018091250190912601A8
:103E6000F0CF82E0F3CF83E08093260160912301BD
:103E7000709124018091250190912601E2CFE3CF3A
:103E8000089581E0809326016091230170912401BF
:103E90008091250190912601D4CFF3CF089591E030
:103EA000811101C090E090932501609123017091F0
:103EB00024018091250190912601C3CF8091250195
:103EC00008958093240160912301709124018091D1
:103ED000250190912601B5CF80912401089580930A
:103EE000230160912301709124018091250190911B
:103EF0002601A7CF80912301089508950895FECF4C
:103F0000089508950895F9CF0895CF93FADF0E9498
:103F1000FF11F8DFC0E08C2F0E944E11811105C007
:103F2000CF5FCA30C1F7CF91089581E0FCCFCF9326
:103F3000DF93EC016BD08C1B9D0BDF91CF9108952B
:103F400085B7806885BF85B7806885BF08951F9253
:103F50001FB61F9211248F939F93AF93BF938091AD
:103F60003003811113C08091810390918203A0914D
:103F70008303B09184034196A11DB11D80938103F9
:103F800090938203A0938303B0938403BF91AF9176
:103F90009F918F911F901FBE1F901895809189034C
:103FA000843031F10E949B041092300388E190E04C
:103FB00020E40FB6F894A895809360000FBE20937C
:103FC000600083B7817F846083BF83B7816083BFD4
:103FD0007894889583B78E7F83BF0FB6F894A895A1
:103FE00080916000886180936000109260000FBE35
:103FF00008950E941E080C94A10482E084BD93E001
:1040000095BD9AEF97BD80936E0008952FB7F894F1
:104010008091810390918203A0918303B0918403E6
:104020002FBF08952FB7F894609181037091820398
:1040300080918303909184032FBF089578941F92F9
:104040001FB61F9211248F939F93AF93BF938091BC
:10405000810390918203A0918303B0918403019620
:10406000A11DB11D8093810390938203A0938303CC
:10407000B0938403BF91AF919F918F911F901FBE0A
:104080001F90189581E08093E00080E28093D80033
:104090001092C9008FE19EE40197F1F700C0000083
:1040A00087E090EBDC018093920390939303A093BD
:1040B0009403B093950388E19CE00FB6F894A8951B
:1040C000809360000FBE90936000FFCF88E19CE07A
:1040D0000FB6F894A895809360000FBE909360008F
:1040E000FFCF9B01BA01909189039430E1F48F7066
:1040F0008093E9009FEF8091E800915085FD06C014
:1041000085ED8A95F1F700009111F5CF8091E800D7
:1041100085FF09C050E040E0C901BAD18091E800B4
:104120008E778093E800089543E050E0BC0182E080
:10413000D8CF46E050E0BC0182E0D3CF40E250E06F
:10414000BC0182E0CECFCF93DF93EC01B7DE48E035
:1041500050E0BE0181E0C5DF88E0FE01A1E3B3E0ED
:1041600001900D928A95E1F7DF91CF9108958091AA
:104170008803811107C01AD371D38091E200846053
:104180008093E20008951092880308957ADE81E01A
:1041900086CE6091850381E0611101C080E063CE2D
:1041A0009091890381E0943009F080E0609185036B
:1041B00066CE42E061EC81E075D242E261EC82E0E1
:1041C00071D29091890381E0943009F080E0609190
:1041D000850339CE80918B03833009F45EC030F4BF
:1041E0008130C1F1823009F494C008958A3009F415
:1041F00083C08B3009F46BC0893009F04DC08091C9
:104200008A03813209F048C080918E0390918F0318
:10421000029708F041C08091E800877F8093E80012
:104220008091E80082FF34C09091F3008091F20009
:10423000029731F48091F100813011F0863019F449
:104240008091F1003EDE8091E8008B778093E8005A
:104250005DD222C080918A03813AF1F48091E80016
:10426000877F8093E80080918E0390918F03892B44
:1042700059F468E081E393E070E057D18091E80061
:104280008B778093E800089560E090E080E0F4CFC1
:10429000809189038111C4CF089580918A03813A66
:1042A000D9F780918E0390918F03892BA9F7809184
:1042B000E800877F8093E8008091E80080FFFCCFD2
:1042C000FDDD8093F1008091E8008E77BFCF809173
:1042D0008A03813209F780918E0390918F03892B95
:1042E000D9F68091E800877F8093E8000FD2809113
:1042F0008C03D5DD0C941E0880918A03813261F60F
:104300008091E800877F8093E80000D280918D0340
:10431000E6CD80918A03813A09F0BECF8091E80012
:10432000877F8093E8008091E80080FFFCCFE2DD8A
:10433000C8CF84B7877F84BF0FB6F894A8958091C3
:104340006000886180936000109260000FBE80E87A
:1043500090E00FB6F89480936100909361000FBED7
:104360009CCD24D27BD2E2EEF0E080818460808319
:104370007894DEC487E291E0A7CB809189038530F1
:1043800029F480918903853011F033CE089506DE3B
:10439000BCDD8823B1F380918703882391F362D039
:1043A0000E941E08EECF08959A014091900350910B
:1043B000910300C0492F55274330510519F168F486
:1043C0004130510509F444C04230510509F445C05B
:1043D00090E080E050E040E025C04132510549F1D5
:1043E00042325105A9F784E490E045E256E06115B8
:1043F0007105C1F086EB90E04FE655E06130710544
:1044000089F0E6CF99278130910581F0009729F056
:104410000297F1F6E6EFF4E002C0EEE1F5E08491F8
:1044200090E0AF01F901518340830895E8E0F5E0A1
:10443000F6CF89E090E044E355E06115710591F312
:1044400089E090E04DE455E06130710559F3C0CF4B
:1044500082E190E04DE555E0E5CF8BE390E042E26C
:1044600055E0E0CF80E189BD82E189BD09B400FE5D
:10447000FDCF8091D8008F7D8093D8008091E0009F
:1044800082608093E0008091E00081FDFCCF089580
:10449000AF92BF92CF92DF92FF920F931F93CF9371
:1044A000DF936C01EB018A0150D1F82E811123C0FA
:1044B0000115110539F0F80180819181C81BD90BD4
:1044C000C80ED91EB12CA12C2097A9F08091E8002C
:1044D00085FD21C08091E8008E778093E80001156A
:1044E0001105A1F0F80180819181A80EB91EB18259
:1044F000A08285E0F82E8F2DDF91CF911F910F9133
:10450000FF90DF90CF90BF90AF9008951ED1882389
:10451000D9F2F82EF0CFF60181916F018093F1006E
:104520002197FFEFAF1ABF0ACFCFFC018091900314
:104530009091910386179707A0F06115710529F4F2
:104540009091E8009E779093E80090E061157105E6
:1045500051F4911108C08091E80082FF34C080E0DE
:104560000895BC01F2CF809189038823C1F1853081
:10457000C1F18091E80083FD30C08091E80082FDA8
:10458000EACF8091E80080FFE1CF8091F300209195
:10459000F200382F6115710519F02830310558F0F7
:1045A00091E02830310509F090E02091E8002E7765
:1045B0002093E800CBCF81918093F1006150710985
:1045C0002F5F3F4FE7CF80918903882341F08530EB
:1045D00041F08091E80083FFBECF81E0089582E042
:1045E000089583E00895FC018091900390919103D8
:1045F00086179707A0F06115710529F48091E800EE
:104600008E778093E80090E06115710551F4911167
:1046100008C08091E80082FF35C080E00895BC01A9
:10462000F2CF809189038823C9F18530C9F1809147
:10463000E80083FD31C08091E80082FDEACF8091DF
:10464000E80080FFE1CF8091F3002091F200382F45
:104650006115710519F02830310558F091E02830C6
:10466000310509F090E08091E8008E778093E800B2
:10467000CBCF84918093F1003196615071092F5F07
:104680003F4FE6CF80918903882341F0853041F088
:104690008091E80083FFBDCF81E0089582E0089516
:1046A00083E00895982F973028F08F708093E90069
:1046B00081E008959093E900242F762F50E0981719
:1046C00031F07091EC002091ED005091F00021FD4F
:1046D00002C09F5FE8CF3091EB003E7F3093EB004C
:1046E0003091ED003D7F3093ED003091EB00316073
:1046F0003093EB007093EC002093ED005093F000AA
:104700002091EE0027FDE5CF80E0089580918A0397
:1047100087FF13C08091E80082FF06C08091E80007
:104720008B778093E80004C0809189038111F2CFD8
:104730000895809189038823D9F38091E80080FF50
:10474000F8CF8091E8008E77ECCF2091E400309193
:10475000E50095E6A9012091EC00822F817020FFF1
:1047600006C08091E80080FF06C080E00895209197
:10477000E80022FD1AC080918903882389F08530E2
:1047800089F08091EB0085FD0FC02091E40030910D
:10479000E50042175307F9F29150E1F684E00895DD
:1047A00082E0089583E0089581E0089567D06ED097
:1047B000E0EEF0E0808181608083E8EDF0E08081D0
:1047C0008F77808319BCA7EDB0E08C918E7F8C939E
:1047D00080818F7E80831092880308950F931F93AA
:1047E000CF93DF934BD052D0C8EDD0E088818F7744
:1047F000888388818068888388818F7D888319BCBD
:1048000010928903109285031092870310928603F9
:1048100000EE10E0F80180818B7F808388818160C9
:10482000888342E060E080E03DDFE1EEF0E08081FF
:104830008E7F8083E2EEF0E08081816080838081E2
:1048400088608083F80180818E7F80838881806189
:104850008883DF91CF911F910F910895E8EDF0E0EB
:1048600080818F7E8083E7EDF0E0808181608083AE
:1048700084E082BF81E080938803B0CFE8EDF0E070
:1048800080818E7F80831092E20008951092DA007A
:104890001092E10008951F920F920FB60F9211240B
:1048A0002F933F934F935F936F937F938F939F9338
:1048B000AF93BF93EF93FF938091E10082FF0AC013
:1048C0008091E20082FF06C08091E1008B7F80939F
:1048D000E1002DD28091DA0080FF18C08091D800CD
:1048E00080FF14C08091DA008E7F8093DA0080917F
:1048F000D90080FF91C080E189BD82E189BD09B402
:1049000000FEFDCF81E08093890331DC8091E100DE
:1049100080FF18C08091E20080FF14C08091E20007
:104920008E7F8093E2008091E20080618093E200BC
:104930008091D80080628093D80019BC85E0809374
:10494000890327DC8091E10084FF2AC08091E20086
:1049500084FF26C080E189BD82E189BD89B5982F99
:10496000917080FFFBCF8091D8008F7D8093D8001D
:104970008091E1008F7E8093E1008091E2008F7E44
:104980008093E2008091E20081608093E200809158
:104990008503882309F445C084E08093890300DC03
:1049A0008091E10083FF27C08091E20083FF23C054
:1049B0008091E100877F8093E10082E0809389030A
:1049C000109285038091E1008E7F8093E1008091B9
:1049D000E2008E7F8093E2008091E200806180930C
:1049E000E20042E060E080E05DDE8091F0008860FF
:1049F0008093F000CBDBFF91EF91BF91AF919F913E
:104A00008F917F916F915F914F913F912F910F9077
:104A10000FBE0F901F90189519BC10928903B3DB3D
:104A200075CF8091E30087FD93E090938903B7CF22
:104A30001F920F920FB60F9211242F933F934F9313
:104A40005F936F937F938F939F93AF93BF93CF9316
:104A5000DF93EF93FF93D091E900DF708091EC003A
:104A6000C82FC17080FDC0E81092E9008091F0006D
:104A7000877F8093F00078941ED01092E900809197
:104A8000F00088608093F000CD2BCF70C093E900D8
:104A9000FF91EF91DF91CF91BF91AF919F918F9156
:104AA0007F916F915F914F913F912F910F900FBE2A
:104AB0000F901F901895AAE2B0E0E0E6F5E2F4C18D
:104AC0008AE893E02091F100FC012193CF01F3E00B
:104AD00082399F07B9F77EDB8091E80083FF16C11A
:104AE00080918A0390918B039A3008F00FC1E92FCF
:104AF000F0E0E853F74D98C1803899F0823809F01A
:104B000005C180918E038F70873008F0FFC08093BD
:104B1000E9008091EB0085FB882780F91092E9007D
:104B200006C08091860390918703911182609091D5
:104B3000E800977F9093E8008093F1001092F100D5
:104B40008091E8008E77DFC0882309F4CDC08230E1
:104B500009F0DCC080918C038111D0C080918E035C
:104B60008F702FEF280F263008F0D0C08093E90017
:104B70002091EB0020FFC2C0933031F48091EB0014
:104B800080628093EB00BAC09091EB0090619093AB
:104B9000EB0021E030E001C0220F8A95EAF7209374
:104BA000EA001092EA008091EB008860EACF811160
:104BB000ADC010918C031F778091E3008078812B2A
:104BC0008093E3008091E800877F8093E8009EDD7A
:104BD0008091E80080FFFCCF8091E30080688093A3
:104BE000E30082E0111183E0809389038FC0805835
:104BF000823008F08BC080918C0390918D038C3DA6
:104C000023E0920799F583E08A838AE289834FB78C
:104C1000F894DE01139620E03EE051E2E32FF0E04D
:104C200050935700E49120FF03C0E295EF703F5F7F
:104C3000EF708E2F90E0EA30B8F0C7968D939D9379
:104C40002F5F243159F74FBF8091E800877F809311
:104C5000E8006AE270E0CE01019667DC8091E8002E
:104C60008B778093E80052C0C096E8CF60918E03A6
:104C700070918F03AE014F5F5F4F96DBBC01892BB4
:104C800009F444C09091E800977F9093E8008981EF
:104C90009A81A9DCE3CF8038C9F58091E800877F4D
:104CA0008093E800809185038093F10049CF8111C2
:104CB0002DC090918C03923048F58091E800877F59
:104CC0008093E8009093850321DD809185038823FC
:104CD00011F084E005C08091E30087FDFACF81E008
:104CE0008093890366DA12C080918C03813071F45D
:104CF00081E0933009F080E0809387031092E9000F
:104D00008091E800877F8093E80000DD8091E800D3
:104D100083FF0AC08091E800877F8093E80080913C
:104D2000EB0080628093EB00AA96E3E0D9C008957F
:104D3000CF9380918903882399F0C091E900CF70C7
:104D40009091EC00892F817090FD80E8C82B109223
:104D5000E9008091E80083FDAEDECF70C093E900EA
:104D6000CF910895991B79E004C0991F961708F018
:104D7000961B881F7A95C9F78095089587FB082EA2
:104D8000062687FD819567FD6195ECDF0EF4919510
:104D900007FC81950895AA1BBB1B51E107C0AA1F00
:104DA000BB1FA617B70710F0A61BB70B881F991FCC
:104DB0005A95A9F780959095BC01CD01089597FB70
:104DC000072E16F4009406D077FD08D0E4DF07FC28
:104DD00005D03EF4909581959F4F0895709561950B
:104DE0007F4F0895A1E21A2EAA1BBB1BFD010DC027
:104DF000AA1FBB1FEE1FFF1FA217B307E407F5078B
:104E000020F0A21BB30BE40BF50B661F771F881F66
:104E1000991F1A9469F760957095809590959B01FC
:104E2000AC01BD01CF010895EE0FFF1F0590F49175
:104E3000E02D099405D0332312F48A1B9B0B10C07C
:104E4000A29FB001B39FC001A39F700D811D1124CB
:104E5000911DB29F700D811D1124911D0895F0DFE9
:104E6000B7FF0895821B930B0895EADFA59F900D6D
:104E7000B49F900DA49F800D911D11240895B7FF3C
:104E8000F4CFF3DF821B930B08952F923F924F9242
:104E90005F926F927F928F929F92AF92BF92CF92CA
:104EA000DF92EF92FF920F931F93CF93DF93CDB7D3
:104EB000DEB7CA1BDB0B0FB6F894DEBF0FBECDBF4B
:104EC00009942A88398848885F846E847D848C841C
:104ED0009B84AA84B984C884DF80EE80FD800C8125
:104EE0001B81AA81B981CE0FD11D0FB6F894DEBF08
:104EF0000FBECDBFED010895002E083090F0982F21
:104F0000872F762F652F542F432F322F22270850BB
:104F1000F4CF220F331F441F551F661F771F881FB2
:104F2000991F0A95B2F7002D089597FD1094002E51
:104F3000083098F00850232F342F452F562F672F15
:104F4000782F892F912DF4CF159497958795779584
:104F5000679557954795379527950A95AAF7112490
:104F6000002D08958F929F92AF92BF92CF92DF92C1
:104F7000EF92FF92CF93DF93EC01688179818A8170
:104F80009B81611571058105910521F464E279ED3C
:104F90008BE597E02DE133EF41E050E09BD04901F4
:104FA0005A019B01AC01A7EAB1E45FDF6B017C0110
:104FB000ACEEB4EFA501940164DFDC01CB018C0DF4
:104FC0009D1DAE1DBF1DB7FF03C00197A109B048CD
:104FD00088839983AA83BB839F77DF91CF91FF90CA
:104FE000EF90DF90CF90BF90AF909F908F900895FB
:104FF000B9CF80E091E0B6CFB0E0A0E080930001AF
:1050000090930101A0930201B09303010895FC0164
:105010004150504030F001900616D1F73197CF0142
:105020000895882799270895FB01DC0104C08D911C
:105030000190801921F441505040C8F7881B990B0A
:105040000895FB01DC0102C001900D9241505040D7
:10505000D8F70895F999FECF92BD81BDF89A9927A6
:1050600080B50895A6E1B0E044E050E025C0A8E195
:10507000B0E042E050E020C0262FF999FECF92BD6B
:1050800081BDF89A019700B4021639F01FBA20BD0D
:105090000FB6F894FA9AF99A0FBE08950396272F3F
:1050A000ECDFEADF252FE9DF242FE7CF0196272F5A
:1050B000E4DFE2CFDC01CB01FC01F999FECF06C0B1
:1050C000F2BDE1BDF89A319600B40D9241505040C6
:1050D000B8F70895052E97FB16F400940FD057FDEE
:1050E00005D080DE07FC02D046F408C050954095FC
:1050F000309521953F4F4F4F5F4F08959095809584
:10510000709561957F4F8F4F9F4F0895F894FFCF13
:105110005206520688068806E106FD067A067A06D9
:1051200001076A07760776079E12A512A912AD122B
:10513000B112B512B912BD12C112C512C912D119DC
:10514000431AD919A319A719DD19AB19E119ED19DA
:10515000B7193C1ABB19F119BF19F5191D1AC31952
:10516000F919241AC919FF19071AAF19E519B31942
:10517000E919CD19031A131A2D1A3A1A9D19D519BE
:105180004A1A3D1D431D2D1D371D491D4F1D551D1F
:105190007C25A4258626A4258626D725F7258626C0
:0451A0004B2657261D
:1051A400010000008402A402010102000E000E0EA0
:1051B40001191A1B1C1D1E1F202122280850011E24
:1051C4000A1401000001006C1FA3209E2099209462
:1051D40020E200E900EA00B500B600B700CD008384
:1051E40001CC008A019201940121022302240225A8
:1051F40002260227022A02B300B4006F0070009F47
:1052040001CB019F02A002818283E200E900EA004F
:10521400B500B600B700CD008301CC008A0192012D
:1052240094012102230224022502260227022A02D3
:10523400B300B4006F0070009F01CB019F02A00275
:10524400818283F7663192C63397F49190F594F690
:105254003435323600010202020206060609090943
:105264000909090F0F0F0F0F0F1515151819191923
:10527400191919191919192324252525252525FB5B
:0852840018FD180819131900A8
:00000001FF
